S0120000676F6E62655F726561722E73726563FE
S21400000080C12C00A0263800000000000000000080
S21400001000000000000000000000000000000000DB
S214000020C390909090909090909090909090909098
S214000030E91301000090909090909090909090908E
S214000040C0132B00EA007E00001800E4642402E4DB
S2140000506075F8C3FBC3FAC38B5424048A4424088F
S214000060EEC3668B44240466894424060F01542498
S21400007006C3668B44240466894424060F015C2468
S21400008006C30F010D80D12800C30F011D80D128A3
S21400009000C30F005C2404C30F20C0C38B44240499
S2140000A00F22C0C39C58C38B442404509DC38B545A
S2140000B024048922B800000000C38B642404B8011D
S2140000C0000000C3F4C3061E6089E050668CD08E24
S2140000D0D88EC0E82C3D000058611F07CFFF6C2467
S2140000E004C30FA00FA81E0666B808008EE08EE8B0
S2140000F08ED88EC0668CD066A3609A2C0089256246
S2140001009A2C0066B808008ED0BC70C12C005251E4
S21400011053E8824B0000668B1D609A2C008ED38BB2
S21400012025629A2C00071F0FA90FA1CF8B54240C11
S2140001308B4C24088B5C2404CD40C38B542404B819
S214000140000000002E8A02C35589E583EC38E88556
S214000150060000B8040028008B08B8000028008BB2
S21400016010A1A8C32C00894C240C89542408C74429
S214000170240440CE2800890424E81B1B00008B15AD
S214000180A4C32C00A1A8C32C0089542408C7442467
S2140001900453CE2800890424E8FC1A0000A1A0C35A
S2140001A02C000FB740060FBFC8A1A0C32C000FB786
S2140001B040040FBFD0A1A8C32C00894C240C89543E
S2140001C02408C74424045CCE2800890424E8C71AFF
S2140001D00000A1A8C32C00C74424046FCE280089C1
S2140001E00424E8B21A0000A1A8C32C00C7442404C3
S2140001F07ECE2800890424E89D1A0000A1A8C32CFE
S21400020000C7442408D2040000C74424048FCE2824
S21400021000890424E8801A0000A1A8C32C00C74463
S2140002202408D2040000C74424049BCE2800890476
S21400023024E8631A0000A1A8C32C00C7442408D2EF
S214000240040000C7442404A9CE2800890424E846F4
S2140002501A0000A1A8C32C00C7442408D20400003A
S214000260C7442404B9CE2800890424E8291A0000CB
S214000270A1A8C32C00C744240834120000C7442495
S21400028004C9CE2800890424E80C1A0000A1A8C3DB
S2140002902C00C7442408D9CE2800C7442404DECE48
S2140002A02800890424E8EF190000A1A8C32C00C781
S2140002B044240831000000C7442404ECCE280089FA
S2140002C00424E8D2190000C744240410270000C7FD
S2140002D0042480C12C00E8183D0000050001000041
S2140002E08945F4E8CF4300008945F08B45F0A39894
S2140002F0C12C00C7442404010000008B45F089048B
S21400030024E8F6450000A1640A2D008B55F08950BC
S2140003100CE8E24400008945ECC7042400200000F5
S214000320E8B222000005F41F000089C28B45EC8964
S2140003305044BA070900008B45EC89502C8B45ECDD
S214000340C74054080000008B45ECC740581000001A
S214000350008B45ECC7405C080000008B45ECC740AE
S21400036060080000008B45ECC74064080000008B66
S21400037045ECC7406808000000C744240409000094
S214000380008B45EC890424E870450000E8734B00B8
S21400039000C7442404FE000000C704242100000017
S2140003A0E8B3FCFFFFC704240A000000E8CB4700C0
S2140003B000E8A0FCFFFFC7042480C12C00E8AA4088
S2140003C0000085C0750CE889FCFFFFE8F4FCFFFF21
S2140003D0EBD3C7042480C12C00E80E4000008945FA
S2140003E0E8E86EFCFFFF837DE8000F8883030000CB
S2140003F0817DE8FF0000000F8F76030000A108E370
S2140004002C008B40108945E4A108E32C008B55E4B2
S21400041083C2048B4490048945E08B45E08904241C
S214000420E8772800008B45E08B809000000083F87A
S214000430050F87860000008B048558CF2800FFE054
S214000440C7442404FCCE28008B45E0890424E846F3
S214000450180000EB68C744240404CF28008B45E04E
S214000460890424E831180000EB53C74424040CCF59
S21400047028008B45E0890424E81C180000EB3EC7E2
S21400048044240414CF28008B45E0890424E8071888
S2140004900000EB29C74424041CCF28008B45E089C4
S2140004A00424E8F2170000EB14C744240424CF28E1
S2140004B0008B45E0890424E8DD170000908B45E0BA
S2140004C0890424E8E4260000C705ACC32C0000001D
S2140004D00000817DE8B80000007526837DE4000FEB
S2140004E08EED020000A108E32C008B40148B55E42F
S2140004F089542404890424E8F82E0000E9D1020077
S21400050000817DE8B7000000752E837DE4000F8E25
S214000510BE020000A108E32C008B55E483C2048BC6
S214000520449004C744240400000000890424E8C161
S2140005302E0000E99A020000817DE8B100000075F7
S21400054037837DE4000F88870200008B45E08B40F0
S214000550148D50EC8B45E08950148B45E08B40148D
S21400056085C0790A8B45E0C7401400000000E819F2
S214000570280000E95A020000817DE8B200000075FC
S21400058053837DE4000F88470200008B45E08B40D4
S214000590148D50148B45E08950148B45E08B501415
S2140005A08B45E08B400C01C2A108E32C008B400C6D
S2140005B039C27E16A108E32C008B500C8B45E08BCD
S2140005C0400C29C28B45E0895014E8BD270000E99D
S2140005D0FE010000817DE8B40000007553837DE4D1
S2140005E0000F88EB0100008B45E08B40108D501407
S2140005F08B45E08950108B45E08B50108B45E08B87
S214000600400801C2A108E32C008B400839C27E16C0
S214000610A108E32C008B50088B45E08B400829C2CC
S2140006208B45E0895010E861270000E9A201000030
S214000630817DE8B30000007537837DE4000F888F66
S2140006400100008B45E08B40108D50EC8B45E08917
S21400065050108B45E08B401085C0790A8B45E0C76B
S214000660401000000000E821270000E962010000B9
S214000670817DE8AD0000007536837DE4000F884F6D
S2140006800100008B45E08B400C8D50EC8B45E08BD9
S214000690400889542408894424048B45E0890424AE
S2140006A0E88D2F0000E8E2260000E9230100008123
S2140006B07DE8AE0000007536837DE4000F881001EB
S2140006C000008B45E08B400C8D50148B45E08B4032
S2140006D00889542408894424048B45E0890424E8C6
S2140006E04E2F0000E8A3260000E9E4000000817D0C
S2140006F0E8B00000007536837DE4000F88D1000066
S214000700008B45E08B400C8B55E08B520883C2145F
S21400071089442408895424048B45E0890424E80F7E
S2140007202F0000E864260000E9A5000000817DE8AF
S214000730AF0000007533837DE4000F889200000050
S2140007408B45E08B400C8B55E08B520883EA14896E
S214000750442408895424048B45E0890424E8D02ED8
S2140007600000E825260000EB698B45E8A3ACC32C07
S21400077000EB5F8B45E83B45F47536A1A8C32C001B
S214000780C74424042CCF2800890424E80915000057
S214000790C744240410270000C7042480C12C00E8A6
S2140007A04F38000005000100008945F4E9F4FBFF1E
S2140007B0FFA1A8C32C008B55E889542408C74424FD
S2140007C0043FCF2800890424E8CC140000E9D3FBBA
S2140007D0FFFF90E9CDFBFFFF5589E583EC28E80392
S2140007E0040000C705A0C32C00F00F0000A1A0C3A2
S2140007F02C000FB740040FBFD0A1A0C32C000FB72A
S2140008004006980FAFC289C2A1A0C32C008B400837
S21400081089542408C744240407000000890424E8F7
S21400082065310000E83B180000E8861A0000E8D1B1
S214000830040000C7442404FFFFFFFFC70424000091
S2140008404000E847020000A3A4C32C00A1A4C32CC8
S2140008500089442408C744240400004000C7042438
S214000860C0C32C00E83B1D0000E892200000A1A0B9
S214000870C32C000FB740060FBFD0A1A0C32C000F9B
S214000880B7400498C7442408FFFF00008954240496
S214000890890424E81D2100008945F4C74424080083
S2140008A0000000C7442404000000008B45F48904BF
S2140008B024E873220000C7442404000000008B458F
S2140008C0F4890424E82B2B00008B45F4A3A8C32C42
S2140008D000C744240C00000000C7442408A0C12C14
S2140008E000C744240480000000C7042480C12C00F4
S2140008F0E8CF390000E811340000E855F7FFFFE8BC
S214000900B833000090C9C35589E583EC08E8B2F710
S214000910FFFFEBF95589E581EC48020000C745F476
S21400092000000000A1A8C32C00C744240470CF28F0
S21400093000890424E8601300008B450C8944240CCD
S2140009408D85D0FDFFFF89442408C7442404800019
S21400095000008D45D0890424E867390000C7442488
S21400096004E80300008D45D0890424E8833600009F
S21400097005000100008945F08345F401E8D5F6FF3F
S214000980FF8D45D0890424E8E03A000085C075074D
S214000990E8BFF6FFFFEBE18D45D0890424E84A3A2C
S2140009A000008945ECE8AAF6FFFF8B45EC3B45F0D6
S2140009B075C68B45F489442408C744240482CF288E
S2140009C0008B4508890424E8CD120000C74424049F
S2140009D0E80300008D45D0890424E814360000059D
S2140009E0000100008945F08B450C890424E88A3F05
S2140009F00000EB845589E583EC180FB605340A2D04
S214000A00000FB6C089442408C74424048CCF2800AD
S214000A108B4508890424E87E120000EBDD90909058
S214000A205589E583EC108B45080DFFFF00008945CE
S214000A30FCEB498B45FC8945F88B55FC8B45F889C2
S214000A40108B45F88B008945F48B45FCF7D089C29E
S214000A508B45F889108B45F88B008945F08B45F05F
S214000A60F7D089C28B45F439C2740A8B45FC2D0039
S214000A70000100EB178145FC000001008B45FC3BA4
S214000A80450C76AF8B45FC2D00000100C9C3558987
S214000A90E557565383EC4CC645E700E804F6FFFFDF
S214000AA08945E0814DE0000004008B45E089042480
S214000AB0E8F2F5FFFFE8EAF5FFFF8945E08B45E041
S214000AC0250000040085C07404C645E7018165E082
S214000AD0FFFFFBFF8B45E0890424E8C8F5FFFF8095
S214000AE07DE700741AE8AEF5FFFF8945DC814DDC32
S214000AF0000000608B45DC890424E89DF5FFFF8B31
S214000B00450C894424048B4508890424E80FFFFF1C
S214000B10FF8945D8807DE700741AE879F5FFFF89DC
S214000B2045DC8165DCFFFFFF9F8B45DC890424E8FC
S214000B3068F5FFFF8B45D8BA0000000083C001832C
S214000B40D2008945C08955C48B45C4C1F81F998910
S214000B50C381E3FFFF0F0089DE89D083E00089C7E9
S214000B6089F089FA0345C01355C40FACD014C1FAF6
S214000B70148945D48B45D483C44C5B5E5F5DC355F6
S214000B8089E583EC28E81F3500008945F090E816D3
S214000B903500003945F074F6E80C3500008945F05C
S214000BA0C745F4000000008345F401E8F93400006E
S214000BB02B45F03DE70300007702EBEB908B45F406
S214000BC0BA83DE1B43F7E289D0C1E81289442408C1
S214000BD0C744240494CF28008B4508890424E8B62B
S214000BE010000090C9C35589E583EC10B8000028B2
S214000BF0008B008945FCEB0A8B45FCC6000083454C
S214000C00FC01B8040028008B003945FC72EA90907D
S214000C10C9C35589E583EC28E887F4FFFF8945F4C6
S214000C20EB1F8B45F4250002000085C07507E89190
S214000C30F4FFFFEB0CC704240A000000E83B3F006B
S214000C40008B4508C744240800000000894424049B
S214000C50C7042401000000E8D0F4FFFF8945F083B4
S214000C607DF00074BD8B45F0C9C35589E583EC283B
S214000C708B4508890424E897FFFFFF8945F4837DA8
S214000C80F4007EEC837DF47F7FE68B45F4C9C35584
S214000C9089E583EC28C745F400000000EB3A8B4555
S214000CA008890424E8C1FFFFFF89C28B4DF48B45F9
S214000CB00C01C888108B55F48B450C01D00FB6007C
S214000CC03C0A75108B45F48D50018B450C01D0C63F
S214000CD00000EB2B8345F4018B451083E801394572
S214000CE0F47CBB8B55F48B450C01D0C60000908B72
S214000CF04508890424E870FFFFFF83F80A75F0C9E9
S214000D00C39090905589E5905DC35589E583EC10B6
S214000D108B45080FB6000FBEC025FF0000008945B2
S214000D20F4817DF4800000007E1B817DF49F00002E
S214000D30007F128B45F42D8100000001C083C001A6
S214000D408945FCEB35817DF4DF0000007E1B817D4C
S214000D50F4EF0000007F128B45F42DE00000000148
S214000D60C083C03F8945FCEB118B450CC7000100D2
S214000D7000008B45F4E98D0000008B450883C00118
S214000D800FB6000FBEC025FF0000008945F4837D26
S214000D90F43F7E11837DF47E7F0B8B45F483E83F22
S214000DA08945F8EB4B837DF47F7E14817DF49E00AD
S214000DB000007F0B8B45F483E8408945F8EB3181D2
S214000DC07DF49E0000007E1A817DF4FC0000007F0A
S214000DD0118345FC018B45F42D9E0000008945F8E3
S214000DE0EB0E8B450CC700010000008B45F4EB179B
S214000DF08B450CC700020000008B45FC83E8016BA6
S214000E00D05E8B45F801D0C9C35589E583EC18C779
S214000E1045FC000000008D45F8894424048B4508F5
S214000E20890424E8E2FEFFFF85C075058B45FCEBD0
S214000E300C8345FC018B45F8014508EBD9C9C35521
S214000E4089E55383EC34E859F2FFFF8945ECE80363
S214000E50F2FFFFC745F000000000E921010000C7CF
S214000E6045F400000000E9070100008B45F08D50B6
S214000E70FF89D001C001D0C1E00289C28B45F401D0
S214000E80D08945E88B45E899C1EA1D01D083E00783
S214000E9029D0BA8000000089C1D3FA89D08945E4F8
S214000EA08B45E88D500785C00F48C2C1F80389C13D
S214000EB08B551489D0C1E00301D001C001C805607C
S214000EC0E828000FB6000FB6C08945E0837DF00025
S214000ED07E57837DF00C7F518B45E02345E485C02B
S214000EE074478B45088B40708B0085C0750A8B4510
S214000EF0088B40688B00EB088B45088B406C8B009A
S214000F008B4D108B55F001D18B5D0C8B55F401DAAF
S214000F108944240C894C2408895424048B45088968
S214000F200424E818060000EB458B45088B40708BC0
S214000F300085C0750A8B45088B406C8B00EB088BD0
S214000F4045088B40688B008B4D108B55F001D18B7C
S214000F505D0C8B55F401DA8944240C894C240889ED
S214000F605424048B4508890424E8D10500008345F1
S214000F70F401837DF40B0F8EEFFEFFFF8345F00137
S214000F80837DF00F0F8ED5FEFFFF8B45EC89042482
S214000F90E812F1FFFF908B5DFCC9C35589E583EC31
S214000FA0288D45F0894424048B4514890424E85789
S214000FB0FDFFFF8945F48B45F083F80175168B45D8
S214000FC0140FB6000FBEC083E8208B0485A0CF2880
S214000FD0008945F48B45F48944240C8B45108944DC
S214000FE024088B450C894424048B4508890424E88E
S214000FF04BFEFFFF90C9C35589E5905DC35589E553
S214001000905DC35589E5905DC35589E583EC048BF7
S2140010104508890424E8DDFFFFFF8B45088B406008
S2140010208B1083EA0189108B45088B40608B008506
S214001030C0790C8B45088B4060C700000000008B11
S2140010404508890424E8B3FFFFFF8B45088904247C
S214001050E8AEFFFFFF90C9C35589E583EC288B45B2
S21400106008890424E88EFFFFFF8B45088B40608BC1
S2140010701083C20189108B45088B40608B108B450E
S214001080088B407839C20F8CD80000008B45088B3F
S21400109050788B45088B406083EA018910C745F07D
S2140010A010000000EB58C745F400000000EB3D8B35
S2140010B045F0894424088B45F4894424048B45086C
S2140010C0890424E8630500008B55F083EA10894400
S2140010D0240C895424088B45F4894424048B450841
S2140010E0890424E8570400008345F4018B45088BE7
S2140010F080840000003945F47CB58345F0018B45BB
S214001100088B80880000003945F07C9A836DF010CB
S214001110EB44C745F400000000EB298B45088B40E4
S2140011206C8B008944240C8B45F0894424088B453D
S214001130F4894424048B4508890424E8FF0300004E
S2140011408345F4018B45088B80840000003945F404
S2140011507CC98345F0018B45088B808800000039E8
S21400116045F07CAE8B4508890424E88EFEFFFF8B95
S2140011704508890424E889FEFFFF90C9C35589E520
S21400118083EC188B4508890424E869FEFFFF8B452D
S214001190088B405C8B1083C20189108B45088B40FE
S2140011A05C8B108B45088B407439C27C248B4508B9
S2140011B08B405CC700000000008B4508890424E8CB
S2140011C039FEFFFF8B4508890424E889FEFFFFEB04
S2140011D0168B4508890424E821FEFFFF8B45088905
S2140011E00424E81CFEFFFFC9C35589E583EC048B85
S2140011F04508890424E8FDFDFFFF8B45088B405C0D
S2140012008B1083EA0189108B45088B405C8B008528
S214001210C079298B45088B50748B45088B405C83BE
S214001220EA0189108B4508890424E8CEFDFFFF8B70
S2140012304508890424E8CFFDFFFFEB168B45088997
S2140012400424E8B6FDFFFF8B4508890424E8B1FDB9
S214001250FFFFC9C35589E583EC388B450C8845E408
S214001260E83FEEFFFF8945F4E8E9EDFFFF8B450810
S2140012708B405C8B1089D001C001D0C1E00289454B
S214001280F08B45088B40608B00C1E0048945EC80FC
S2140012907DE41F0F8795000000807DE40A753D8B76
S2140012A04508890424E84DFDFFFF8B45088B405C0C
S2140012B0C700000000008B4508890424E83CFDFFB9
S2140012C0FF8B4508890424E88CFDFFFF8B45F489D5
S2140012D00424E8D0EDFFFFE993000000807DE409D8
S2140012E07539C7442404200000008B45088904246F
S2140012F0E85FFFFFFFEB13C7442404200000008BC9
S2140013004508890424E84AFFFFFF8B45088B405CAC
S2140013108B0083E00385C075DEEB49807DE40875AD
S214001320438B4508890424E8BDFEFFFFEB360FB665
S21400133045E483E8208B0485A0CF28008944240C4C
S2140013408B45EC894424088B45F0894424048B455E
S21400135008890424E8E6FAFFFF8B4508890424E898
S21400136019FEFFFF8B45F4890424E838EDFFFFC91A
S214001370C35589E583EC38E828EDFFFF8945F0E89A
S214001380D2ECFFFF8D45E4894424048B450C890488
S21400139024E874F9FFFF8945F4837DF40075108B0B
S2140013A045F0890424E8FDECFFFFE9060100008B08
S2140013B045E483F8017539837DF41F7E18837DF438
S2140013C07F7F128B45F483E8208B0485A0CF28000E
S2140013D08945F4EB1C8B45F40FB6C0894424048B76
S2140013E04508890424E86AFEFFFF83450C01EB9458
S2140013F0908B45088B40748D50FF8B45088B405C66
S2140014008B0039C27E448B45088B405C8B1089D09C
S21400141001C001D0C1E0028945EC8B45088B4060D5
S2140014208B00C1E0048945E88B45F48944240C8B85
S21400143045E8894424088B45EC894424048B4508F8
S214001440890424E8F7F9FFFFEB55C74424040A0093
S21400145000008B4508890424E8F7FDFFFF8B45084C
S2140014608B405C8B1089D001C001D0C1E002894559
S214001470EC8B45088B40608B00C1E0048945E88B07
S21400148045F48944240C8B45E8894424088B45ECB4
S214001490894424048B4508890424E8A0F9FFFF8BBF
S2140014A04508890424E8D3FCFFFF8B45E401450C7E
S2140014B0E9CFFEFFFFC9C35589E583EC048B4508D9
S2140014C0890424E82FFBFFFF837D0C007907C745BE
S2140014D00C000000008B45088B407439450C7C0CD2
S2140014E08B45088B407483E80189450C837D10008A
S2140014F07907C74510000000008B45088B407839F7
S21400150045107C0C8B45088B407883E80189451094
S2140015108B45088B405C8B550C89108B45088B409F
S214001520608B551089108B4508890424E8CCFAFF97
S214001530FF8B4508890424E8C7FAFFFF90C9C35506
S21400154089E553837D0C000F88D80000008B450882
S2140015508B808400000039450C0F8DC60000008388
S2140015607D10000F88BC0000008B45088B8088002B
S21400157000003945100F8DAA0000008B45088B0827
S2140015808B45088B90800000008B451001C28B4570
S214001590088B40080FAFD08B45088B587C8B450CCA
S2140015A001D801D001C88B551488108B45088B5084
S2140015B0108B45088B407C01D001450C8B45088B71
S2140015C050148B45088B808000000001D001451028
S2140015D0A108E32C008B5004A108E32C008B4008E4
S2140015E00FAF451089C18B450C01C801C001D00F53
S2140015F0B7000FB7D08B45088B400439C27527A1BA
S214001600A0C32C008B5008A1A0C32C000FB7400429
S214001610980FAF451089C18B450C01C801D08B557A
S214001620148810EB01908B5DFCC9C35589E5538384
S2140016307D0C0078228B45088B808400000039459D
S2140016400C7D14837D1000780E8B45088B808800F7
S21400165000003945107C07B800000000EB318B45D0
S214001660088B088B45088B90800000008B45100186
S214001670C28B45088B40080FAFD08B45088B587C33
S2140016808B450C01D801D001C80FB6000FB6C08B31
S2140016905DFCC9C35589E583EC10C745FC00000016
S2140016A000EB088345FC01834508018B45080FB60F
S2140016B00084C075EE8B45FCC9C35589E553836528
S2140016C00C0F837D0C0977218B450C8D58308B458C
S2140016D0088B008D48018B5508890A89DA88108B9B
S2140016E045088B00C60000EB1F8B450C8D58378BCA
S2140016F045088B008D48018B5508890A89DA8810C1
S2140017008B45088B00C60000908B5DFCC9C35589CD
S214001710E583EC18837D0C0F76158B450CC1E80429
S214001720894424048B4508890424E8DFFFFFFF8BE7
S214001730450C894424048B4508890424E879FFFF76
S214001740FF90C9C35589E55383EC14837D0C097655
S2140017501E8B450CBACDCCCCCCF7E289D0C1E803C1
S214001760894424048B4508890424E8D5FFFFFF8BB1
S2140017704D0CBACDCCCCCC89C8F7E2C1EA0389D0EF
S214001780C1E00201D001C029C189CA89D08D583074
S2140017908B45088B008D48018B5508890A89DA88A5
S2140017A0108B45088B00C60000908B5DFCC9C355A6
S2140017B089E583EC588D45C68945C08B450C894420
S2140017C024048D45C0890424E841FFFFFF8D45C6EB
S2140017D0894424048B4508890424E892FBFFFF9083
S2140017E0C9C35589E583EC18837D0C0079138B45B6
S2140017F0088B008D48018B5508890AC6002DF75DB9
S2140018000C8B450C894424048B4508890424E83154
S214001810FFFFFF90C9C35589E583EC18837D0C094B
S214001820761E8B450CBACDCCCCCCF7E289D0C1E87D
S21400183003894424048B4508890424E8D6FFFFFF67
S2140018408B4D0CBACDCCCCCC89C8F7E2C1EA038963
S214001850D0C1E00201D001C029C189CA89D083C0A5
S214001860300FB6C0894424048B4508890424E8E177
S214001870F9FFFF90C9C35589E583EC18837D0C00FA
S2140018807916C74424042D0000008B4508890424DB
S214001890E8BFF9FFFFF75D0C8B450C894424048BE9
S2140018A04508890424E86CFFFFFF90C9C35589E505
S2140018B08B4514C700000000008B45148B108B4529
S2140018C00C89108B4510C700200000008B45088B44
S2140018D0008D50018B450889108B45088B000FB68C
S2140018E0003C2D75168B450CC700010000008B458B
S2140018F0088B008D50018B450889108B45088B009E
S2140019000FB6003C30754A8B4510C700300000000B
S2140019108B45088B008D50018B45088910EB328B68
S21400192045148B1089D0C1E00201D001C089C28B5A
S21400193045088B000FB6000FBEC001D08D50D08B6F
S214001940451489108B45088B008D50018B450889FE
S214001950108B45088B000FB6003C2F7E0C8B45087D
S2140019608B000FB6003C397EB6905DC35589E58383
S214001970EC288B4508890424E85A2100008945F0A4
S2140019808B45183B45F00F8E98000000837D1000B5
S214001990742E8B45F08945F4EB148B450C8B008D2B
S2140019A048018B550C890AC600208345F4018B45F7
S2140019B0F43B45187CE48B450C8B00C60000EB65B9
S2140019C08B450C8B108B45182B45F001C28B450CB4
S2140019D089108B450C8B00C600008B45F08B551884
S2140019E02B55F089D18B550801CA894424088B45AC
S2140019F00889442404891424E819200000C745F403
S214001A0000000000EB118B55F48B450801D08B5578
S214001A101488108345F4018B45182B45F03945F49E
S214001A207CE4EB0190C9C35589E583EC48E872E68F
S214001A30FFFF8945F0E81CE6FFFF8B450C8945E46F
S214001A40E9320200008B45E40FB6003C2574168B85
S214001A5055E48B45088D4801894D080FB61288104D
S214001A60E9090200008D45D88944240C8D45DC899F
S214001A704424088D45E0894424048D45E4890424E3
S214001A80E828FEFFFF8B45E40FB6000FBEC083E8D4
S214001A906383F8150F87B60100008B048520D128D4
S214001AA000FFE08B45108D50048955108B0089454A
S214001AB0EC8B45088945E88B45088D50018955080B
S214001AC08B55EC88108B4508C600008B4DD88B557F
S214001AD0DC8B45E0894C24108954240C8944240866
S214001AE08D4508894424048B45E8890424E87AFE59
S214001AF0FFFFE9770100008B45108D5004895510D3
S214001B008B008945F48B45088945E8EB178B55F41F
S214001B108D42018945F48B45088D4801894D080F93
S214001B20B61288108B45F40FB60084C075DF8B455F
S214001B3008C600008B4DD88B55DC8B45E0894C24BD
S214001B40108954240C894424088D450889442404AB
S214001B508B45E8890424E811FEFFFFE90E0100002A
S214001B608B45108D50048955108B008945EC8B45AC
S214001B70088945E88B45EC894424048D450889048A
S214001B8024E85CFCFFFF8B4DD88B55DC8B45E08949
S214001B904C24108954240C894424088D4508894413
S214001BA024048B45E8890424E8BFFDFFFFE9BC0058
S214001BB000008B45108D50048955108B008945EC2C
S214001BC08B45088945E88B45EC894424048D4508F7
S214001BD0890424E86CFBFFFF8B4DD88B55DC8B45C6
S214001BE0E0894C24108954240C894424088D450827
S214001BF0894424048B45E8890424E86DFDFFFFEB47
S214001C006D8B45108D50048955108B008945EC8BE3
S214001C1045088945E88B45EC894424048D450889A8
S214001C200424E8E7FAFFFF8B4DD88B55DC8B45E0A4
S214001C30894C24108954240C894424088D4508892D
S214001C404424048B45E8890424E81EFDFFFFEB1EB0
S214001C508B45088D5001895508C600258B55E48BA9
S214001C6045088D4801894D080FB6128810908B459F
S214001C70E483C0018945E48B45E40FB60084C00FB9
S214001C8085C0FDFFFF8B4508C600008B45F0890424
S214001C9024E811E4FFFF90C9C35589E581EC2804C8
S214001CA00000E8FDE3FFFF8945F4E8A7E3FFFF8DAA
S214001CB045108945F08B45F0894424088B450C89EE
S214001CC04424048D85F0FBFFFF890424E856FDFFBD
S214001CD0FF8D85F0FBFFFF894424048B45088904AB
S214001CE024E88BF6FFFF8B45F4890424E8B6E3FF6F
S214001CF0FF90C9C35589E583EC10A1A0C32C008BC7
S214001D004808A1A0C32C000FB740040FBFD0A1788D
S214001D10D128000FAFD0A17CD1280001D001C88BFC
S214001D2055088810A1A0C32C008B4808A1A0C32C7E
S214001D30000FB740040FBFD0A178D128000FAFD056
S214001D40A17CD1280083C00101D001C88B5508882A
S214001D5010A1A0C32C008B4808A1A0C32C000FB76D
S214001D6040040FBFD0A178D128000FAFD0A17CD1FE
S214001D70280083C00201D001C88B55088810A1A096
S214001D80C32C008B4808A1A0C32C000FB7400498B2
S214001D908B1578D1280083C2010FAFD0A17CD12843
S214001DA00001D001C88B55088810A1A0C32C008B59
S214001DB04808A1A0C32C000FB74004988B1578D113
S214001DC0280083C2010FAFD0A17CD1280083C001B8
S214001DD001D001C88B55088810A1A0C32C008B48E1
S214001DE008A1A0C32C000FB74004988B1578D12803
S214001DF00083C2010FAFD0A17CD1280083C00201AE
S214001E00D001C88B55088810A1A0C32C008B4808A9
S214001E10A1A0C32C000FB74004988B1578D12800DA
S214001E2083C2020FAFD0A17CD1280001D001C88B9D
S214001E3055088810A1A0C32C008B4808A1A0C32C6D
S214001E40000FB74004988B1578D1280083C2020F84
S214001E50AFD0A17CD1280083C00101D001C88B552A
S214001E60088810A1A0C32C008B4808A1A0C32C0092
S214001E700FB74004988B1578D1280083C2020FAFA5
S214001E80D0A17CD1280083C00201D001C88B5508A0
S214001E908810A17CD1280083C004A37CD12800A18F
S214001EA0A0C32C000FB740040FBFD0A17CD12800E0
S214001EB039C27F71C7057CD1280001000000A178D7
S214001EC0D1280083C004A378D12800A1A0C32C0089
S214001ED00FB740060FBFD0A178D1280039C27F4582
S214001EE0C70578D1280001000000C745FC000000A7
S214001EF000EB14A1A0C32C008B50088B45FC01D02E
S214001F00C600078345FC01A1A0C32C000FB7400400
S214001F100FBFD0A1A0C32C000FB74006980FAFC2CA
S214001F203945FC7CCE90C9C35589E581EC28040070
S214001F3000E820E1FFFFA1A8C32C0085C00F84ABFA
S214001F400000008D450C8945F08B45F08944240837
S214001F508B4508894424048D85F0FBFFFF89042403
S214001F60E8C2FAFFFFA1A8C32C00890424E83A0CB3
S214001F700000A1A8C32C008B406CC700070000001F
S214001F80A1A8C32C008B4068C70001000000A1A8D0
S214001F90C32C008D95F0FBFFFF895424048904248C
S214001FA0E8CCF3FFFFC745F400000000EB22A1A831
S214001FB0C32C008B108B45F401D00FB610A1A0C324
S214001FC02C008B48088B45F401C888108345F40123
S214001FD0A1A0C32C000FB740060FBFD0A1A0C32CF2
S214001FE0000FB74004980FAFC23945F47CC0E863D1
S214001FF0E0FFFFE8CCE0FFFFEBF45589E583EC2437
S2140020008B450C8845ECC745F800000000EB40C740
S21400201045FC00000000EB250FBE45EC8944240C6F
S2140020208B45F8894424088B45FC894424048B4559
S21400203008890424E806F5FFFF8345FC018B450864
S2140020408B80840000003945FC7CCD8345F8018BED
S21400205045088B80880000003945F87CB29090C90E
S214002060C39090905589E583EC28C745F00000277B
S21400207000C745EC00F82600C745F400000000EB5A
S214002080338B45F48D14C5000000008B45F001D05D
S214002090C744240C00000000C744240800000000C9
S2140020A0C744240400000000890424E8410100001D
S2140020B08345F401817DF4FF1F00007EC48B45F04C
S2140020C083C008C744240C92400000C7442408007C
S2140020D0000000C7442404FFFFFFFF890424E80E25
S2140020E00100008B45F083C010C744240C9A4000C2
S2140020F000C744240800002800C7442404FFFFFF4C
S21400210000890424E8E80000008B45F083C018C767
S21400211044240C9A000000C744240800000000C7AE
S214002120442404FFFF0000890424E8C2000000C71E
S21400213044240400002700C70424FFFF0000E81F13
S214002140DFFFFFC745F400000000EB338B45F48D3E
S21400215014C5000000008B45EC01D0C744240C00D9
S214002160000000C744240800000000C74424040000
S214002170000000890424E8F10000008345F4018192
S2140021807DF4FF0000007EC4C744240400F8260047
S214002190C70424FF070000E8D6DEFFFFBAC600002B
S2140021A0008B45EC0500010000C744240C8E00009F
S2140021B000C744240810000000895424048904241D
S2140021C0E8A7000000BAE20000008B45EC0500021C
S2140021D00000C744240C8E000000C74424081000EA
S2140021E0000089542404890424E87E00000090C975
S2140021F0C35589E5817D0CFFFF0F007610814D14D5
S214002200008000008B450CC1E80C89450C8B450C02
S21400221089C28B45086689108B451089C28B450894
S214002220668950028B4510C1F81089C28B45088814
S21400223050048B451489C28B45088850058B450C85
S214002240C1E81083E00F89C28B4514C1F80883E00B
S214002250F009D089C28B45088850068B4510C1E826
S2140022601889C28B4508885007905DC35589E58B51
S214002270450C89C28B45086689108B451089C28B30
S2140022804508668950028B4514C1F80889C28B45FB
S214002290088850048B451489C28B45088850058BE6
S2140022A0450CC1E81089C28B450866895006905DCA
S2140022B0C39090905589E583EC18C7442408A0D1B4
S2140022C02800C744240417000000C70424000000A8
S2140022D000E80300000090C9C35589E583EC28E8B0
S2140022E0C0DDFFFF8945F0E86ADDFFFF8B45088902
S2140022F0442404C70424C8030000E859DDFFFF8B0C
S21400230045088945F4EB628B45100FB600C0E8021D
S2140023100FB6C089442404C70424C9030000E83566
S214002320DDFFFF8B451083C0010FB600C0E8020F2B
S214002330B6C089442404C70424C9030000E816DD97
S214002340FFFF8B451083C0020FB600C0E8020FB631
S214002350C089442404C70424C9030000E8F7DCFF4E
S214002360FF834510038345F4018B45F43B450C7E03
S214002370968B45F0890424E82BDDFFFF90C9C355F2
S21400238089E583EC148B45108845EC8B4518894508
S214002390F8EB338B45148945FCEB1F8B45F80FAFE4
S2140023A0450C89C28B45FC01D089C28B450801C209
S2140023B00FB645EC88028345FC018B45FC3B451C6B
S2140023C07ED98345F8018B45F83B45207EC590C9EC
S2140023D0C35589E55383EC1C8B45108D48FF8B4510
S2140023E00C8D50FF8B45180FB6C0894C24188954A5
S2140023F02414C744241000000000C744240C000026
S2140024000000894424088B450C894424048B450825
S214002410890424E867FFFFFF8B45108D58FF8B4526
S2140024200C8D48FF8B45108D50EA8B451C0FB6C0AF
S214002430895C2418894C241489542410C744240C1D
S21400244000000000894424088B450C894424048B32
S2140024504508890424E825FFFFFF8B45108D58EAC0
S2140024608B450C8D48FF8B45108D50EA8B45140F1D
S214002470B6C0895C2418894C241489542410C74497
S214002480240C00000000894424088B450C89442451
S214002490048B4508890424E8E3FEFFFF8B450C8D7A
S2140024A050FF8B45140FB6C0C74424180000000028
S2140024B089542414C744241000000000C744240C88
S2140024C000000000894424088B450C894424048BB2
S2140024D04508890424E8A5FEFFFF8B45108D50FFB4
S2140024E08B45140FB6C089542418C7442414000022
S2140024F00000C744241000000000C744240C00005D
S2140025000000894424088B450C894424048B450824
S214002510890424E867FEFFFF8B45108D58FF8B4526
S2140025200C8D48FF8B450C8D50FF8B45140FB6C0A5
S214002530895C2418894C2414C74424100000000029
S2140025408954240C894424088B450C894424048B24
S2140025504508890424E825FEFFFF8B45108D58FFAB
S2140025608B450C8D48FF8B45108D50FF8B45140F07
S214002570B6C0895C2418894C241489542410C74496
S214002580240C00000000894424088B450C89442450
S214002590048B4508890424E8E3FDFFFF908B5DFC6F
S2140025A0C9C390905589E58B4508C7000100000017
S2140025B08B45088B550C8950088B4510C1E0142BB1
S2140025C0450C89C28B450889500C8B4508C74004CA
S2140025D000000000905DC35589E583EC288B450814
S2140025E005FF0F00002500F0FFFF894508C745F4EA
S2140025F000000000E9EB0000008B45F48B04C5CC1E
S214002600C32C003945080F87D40000008B45F48B97
S21400261004C5C8C32C008945EC8B45F48B04C5CC97
S214002620C32C003945087567A1C0C32C0083E80198
S214002630A3C0C32C008B45F48945F0EB298B45F4E9
S21400264083C0018B4DF48B14C5CCC32C008B04C502
S214002650C8C32C008904CDC8C32C008914CDCCC3B4
S2140026602C008345F001A1C0C32C003945F07CCD79
S2140026708B45EC8B550889542408C7442404000075
S2140026800000890424E8FF1200008B45ECEB748BF5
S21400269045F48B14C5C8C32C008B450801C28B4576
S2140026A0F48914C5C8C32C008B45F48B04C5CCC371
S2140026B02C002B450889C28B45F48914C5CCC32C45
S2140026C0008B45EC8B550889542408C74424040025
S2140026D0000000890424E8AE1200008B45ECEB23D2
S2140026E08345F401A1C0C32C003945F40F8C07FFC5
S2140026F0FFFFC7042400D22800E82AF8FFFFB8002E
S214002700000000C9C35589E583EC28C745F40000DE
S2140027100000EB138B45F48B04C5C8C32C00394569
S2140027200872108345F401A1C0C32C003945F47C1F
S214002730E3EB0190837DF4000F8EDF0000008B45F5
S214002740F483E8018B14C5C8C32C008B45F483E8DA
S214002750018B04C5CCC32C0001D03945080F85BABF
S2140027600000008B45F483E8018B0CC5CCC32C001D
S2140027708B45F483E8018B550C01CA8914C5CCC37C
S2140027802C00A1C0C32C003945F40F8D6D0100004C
S2140027908B55088B450C01C28B45F48B04C5C8C30A
S2140027A02C0039C20F85530100008B45F483E801E5
S2140027B08B0CC5CCC32C008B45F48B14C5CCC32C1A
S2140027C0008B45F483E80101CA8914C5CCC32C00EC
S2140027D0A1C0C32C0083E801A3C0C32C008B45F422
S2140027E08945F0EB298B45F483C0018B4DF48B149F
S2140027F0C5CCC32C008B04C5C8C32C008904CDC827
S214002800C32C008914CDCCC32C008345F001A1C095
S214002810C32C003945F07CCDE9E0000000A1C0C320
S2140028202C003945F47D418B55088B450C01C28B35
S21400283045F48B04C5C8C32C0039C2752B8B45F4F0
S2140028408B55088914C5C8C32C008B45F48B14C55A
S214002850CCC32C008B450C01C28B45F48914C5CC27
S214002860C32C00E996000000A1C0C32C003DE7037E
S21400287000007F7BA1C0C32C008945F0EB298B4567
S214002880F083E8018B4DF08B14C5CCC32C008B0471
S214002890C5C8C32C008904CDC8C32C008914CDCC70
S2140028A0C32C00836DF001837DF00075D1A1C0C3F9
S2140028B02C0083C001A3C0C32C008B15C4C32C00FE
S2140028C0A1C0C32C0039C27D0AA1C0C32C00A3C47A
S2140028D0C32C008B45F48B55088914C5C8C32C003F
S2140028E08B45F48B550C8914C5CCC32C00EB0FC755
S2140028F0042420D22800E82DF6FFFFEB0190C9C380
S2140029005589E583EC28C7042414980000E8C5FC24
S214002910FFFF8945F0A1A0C32C008B50088B45F023
S2140029208910A1A0C32C000FB740040FBFD0A1A0F0
S214002930C32C000FB74006980FAFC201C08904240D
S214002940E892FCFFFF89C28B45F0895004A1A0C322
S2140029502C000FB740040FBFD08B45F0895008A15C
S214002960A0C32C000FB740060FBFD08B45F0895090
S2140029700C8B45F0C74010FFFFFFFFC745F4000073
S2140029800000EB1D8B55F08B45F469C094000000E9
S21400299001D00534040000C700000000008345F4A1
S2140029A001817DF4FF0000007EDA8B45F0A308E38A
S2140029B02C0090C9C35589E583EC38C745F4000060
S2140029C00000E9420100008B1508E32C008B45F45B
S2140029D069C09400000001D005340400008B008517
S2140029E0C00F851E0100008B1508E32C008B45F4F4
S2140029F069C094000000051004000001D083C004E4
S214002A008945F08B45F0C74020010000008B45F05B
S214002A108B55F48950048B45F0C7401CFFFFFFFF21
S214002A208B45080FAF450C890424E8A8FBFFFF89F7
S214002A30C28B45F089108B45F08B55088950088B62
S214002A4045F08B550C89500C8B45F08B55108950F2
S214002A50188B45F0C78090000000000000008B45F2
S214002A60F0C74024000000008B45F0C74028000057
S214002A7000008B45F0C74034000000008B45F0C7CF
S214002A804038070000008B45F0C7403C00000000BF
S214002A908B45F0C74040000000008B45F0C740441F
S214002AA0000000008B45F0C74050000000008B453A
S214002AB0F0C74054080000008B45F0C7405800009F
S214002AC000008B45F08B00C744241408000000C7A4
S214002AD044241007000000C744240C000000008BAC
S214002AE0550C895424088B550889542404890424D9
S214002AF0E8DCF8FFFF8B45F0890424E8AC00000012
S214002B008B45F0EB228345F401817DF4FF00000045
S214002B100F8EB1FEFFFFC704244CD22800E806F44F
S214002B20FFFFB800000000C9C35589E583EC28E81C
S214002B3070D5FFFF8945F4837D0C00786C8B4508C3
S214002B408B50088B450C01C2A108E32C008B400873
S214002B5039C27F55837D1000784F8B45088B500C0B
S214002B608B451001C2A108E32C008B400C39C27FB4
S214002B7038E8E0D4FFFF8B45088B550C8950108B46
S214002B8045088B55108950148B45088B401C85C012
S214002B90780AE8F5010000E8DA0600008B45F489BB
S214002BA00424E800D5FFFFEB0190C9C35589E583EF
S214002BB0EC28E8EDD4FFFF8945F4E897D4FFFF8BB7
S214002BC04508C7407C010000008B4508C780800090
S214002BD00000010000008B45088B40088D50FE8BDE
S214002BE045088990840000008B45088B400C8D506A
S214002BF0E98B45088990880000008B45088B8884FF
S214002C00000000BAABAAAA2A89C8F7EA89D0D1F888
S214002C10C1F91F29C889C28B45088950748B45089D
S214002C208B80880000008D500F85C00F48C2C1F809
S214002C300489C28B45088950788B4508C7808C006C
S214002C400000010000008B45088D50248B45088944
S214002C50505C8B45088D50288B45088950608B4505
S214002C60088D502C8B45088950648B45088D503450
S214002C708B45088950688B45088D50388B450889E8
S214002C80506C8B45088D503C8B45088950708B45A1
S214002C90F4890424E80ED4FFFF90C9C35589E58360
S214002CA0EC28E8FDD3FFFF8945F4E8A7D3FFFF8BA8
S214002CB04508C7407C010000008B45088B400C8D02
S214002CC050EB8B45088990800000008B45088B40B0
S214002CD0088D50FE8B45088990840000008B4508BF
S214002CE0C78088000000140000008B45088B88848D
S214002CF0000000BAABAAAA2A89C8F7EA89D0D1F898
S214002D00C1F91F29C889C28B45088950748B4508AC
S214002D108B80880000008D500F85C00F48C2C1F818
S214002D200489C28B45088950788B4508C7808C007B
S214002D300000000000008B45088D50408B45088938
S214002D40505C8B45088D50448B45088950608B45F8
S214002D50088D50488B45088950648B45088D505027
S214002D608B45088950688B45088D50548B450889DB
S214002D70506C8B45088D50588B45088950708B4594
S214002D80F4890424E81ED3FFFF90C9C35589E58360
S214002D90EC58A108E32C008B008945E0E803D3FF3C
S214002DA0FF8945DCA108E32C008B40048945D8E860
S214002DB0A2D2FFFFE8BD040000A108E32C00051422
S214002DC00400008945D4C745E400000000E9BE00C1
S214002DD000008B45D48B50148B45E429D08945ECF4
S214002DE0C745E800000000E98F0000008B45D48B43
S214002DF050108B45E829D08945F0A108E32C008BBC
S214002E0040080FAF45E489C28B45E801D08945C824
S214002E10837DF000781C8B45D48B40083945F07DC7
S214002E2011837DEC00780B8B45D48B400C3945EC38
S214002E307C0D8B55C88B45E001D0C60007EB388B60
S214002E4045C88D14008B45D801D00FB7006685C0E5
S214002E5075258B45D48B108B45D48B40080FAF451A
S214002E60EC89C18B45F001C801D08B4DC88B55E06D
S214002E7001CA0FB60088028345E801A108E32C00CA
S214002E808B40083945E80F8C60FFFFFF8345E4015F
S214002E90A108E32C008B400C3945E40F8C31FFFF72
S214002EA0FFC745F400000000E9E4000000A108E3C5
S214002EB02C008B55F483C2048B4490048945D48B34
S214002EC045D48B008945D08B45D48B40048945CCAE
S214002ED0C745EC00000000E9A20000008B45D48B3B
S214002EE050148B45EC01D08945E4C745F00000003E
S214002EF000EB788B45D48B50108B45F001D089457C
S214002F00E8A108E32C008B40080FAF45E489C28B8C
S214002F1045E801D08945C88B45C88D14008B45D837
S214002F2001D00FB7000FB7C03945CC753A8B45D4E2
S214002F308B40080FAF45EC89C28B45F001D089C2A3
S214002F408B45D001D00FB6008845C70FB655C78B46
S214002F5045D48B401839C2740E8B55C88B45E0019A
S214002F60C20FB645C788028345F0018B45D48B4017
S214002F70083945F00F8C79FFFFFF8345EC018B4540
S214002F80D48B400C3945EC0F8C4FFFFFFF8345F484
S214002F9001A108E32C008B40103945F40F8E0BFF7F
S214002FA0FFFFE8550100008B45DC890424E8F5D0D6
S214002FB0FFFF90C9C35589E583EC48E8E4D0FFFFDE
S214002FC08945EC837D08000F842C010000E884D03E
S214002FD0FFFFA108E32C008B008945E88B45088B92
S214002FE0008945E4A108E32C008B40048945E08B6A
S214002FF045088B40048945DCC745F000000000E921
S214003000A20000008B45088B50148B45F001D08938
S21400301045D4C745F400000000EB788B45088B507C
S214003020108B45F401D08945D0A108E32C008B40D5
S214003030080FAF45D489C28B45D001D08945CC8BCB
S21400304045CC8D14008B45E001D00FB7000FB7C0FC
S2140030503945DC753A8B45088B40080FAF45F0893B
S214003060C28B45F401D089C28B45E401D00FB6006F
S2140030708845CB0FB655CB8B45088B401839C274A4
S2140030800E8B55CC8B45E801C20FB645CB88028324
S21400309045F4018B45088B40083945F40F8C79FFC1
S2140030A0FFFF8345F0018B45088B400C3945F00F38
S2140030B08C4FFFFFFFA108E32C008B40108945D8FA
S2140030C0837DD800790D8B45EC890424E8D6CFFFA4
S2140030D0FFEB27A108E32C008B55D883C2048B4452
S2140030E090043945087505E8100000008B45EC890A
S2140030F00424E8B0CFFFFFEB0190C9C35589E583F0
S214003100EC48E89DCFFFFF8945F4A108E32C008B2F
S214003110008945F0A108E32C008B40108945EC831C
S2140031207DEC000F884A010000E828CFFFFFA108C9
S214003130E32C008B55EC83C2048B4490048945E84D
S2140031408B45E88B40108945E48B45E88B50108B07
S21400315045E88B400801D083E8018945E08B45E8C7
S2140031608B40148945DC8B45E88B50148B45E88BE7
S214003170400C01D083E8018945D8A108E32C008BD8
S21400318040088B55D8895424188B55E48954241448
S2140031908B55DC895424108B55E48954240CC74481
S2140031A0240801000000894424048B45F089042487
S2140031B0E8CAF1FFFFA108E32C008B40088B55DC22
S2140031C0895424188B55E0895424148B55DC895473
S2140031D024108B55E48954240CC7442408010000AD
S2140031E000894424048B45F0890424E88FF1FFFF0E
S2140031F0A108E32C008B40088B55D8895424188BE3
S21400320055E0895424148B55D8895424108B55E4E2
S2140032108954240CC744240801000000894424046F
S2140032208B45F0890424E854F1FFFFA108E32C0045
S2140032308B40088B55D8895424188B55E089542424
S214003240148B55DC895424108B55E08954240CC704
S21400325044240801000000894424048B45F08904B6
S21400326024E819F1FFFF8B45F4890424E836CEFFE5
S214003270FFEB0190C9C35589E583EC48E823CEFFF0
S214003280FF8945E4C745F400000000EB18A108E3F9
S2140032902C008B50048B45F401C001D066C700009B
S2140032A0008345F401A1A0C32C000FB740040FBF54
S2140032B0D0A1A0C32C000FB74006980FAFC2394567
S2140032C0F47CCAE88ECDFFFFC745F000000000E999
S2140032D097000000A108E32C008B55F083C2048BF6
S2140032E04490048945E0A108E32C008B40048945FE
S2140032F0DC8B45E08B40048945D8C745E8000000D4
S21400330000EB598B45E08B50148B45E801D089457E
S214003310D4C745EC00000000EB338B45E08B501023
S2140033208B45EC01D08945D0A108E32C008B4008E2
S2140033300FAF45D489C28B45D001D08D14008B4584
S214003340DC01D08B55D86689108345EC018B45E0AF
S2140033508B40083945EC7CC28345E8018B45E08B01
S214003360400C3945E87C9C8345F001A108E32C001D
S2140033708B40103945F00F8E58FFFFFF8B45E489D0
S2140033800424E820CDFFFF90C9C35589E583EC28C7
S214003390E80FCDFFFF8945F4E8B9CCFFFF8B450861
S2140033A08B401C85C07813C7442404FFFFFFFF8BA7
S2140033B04508890424E83A0000008B4508C74020E9
S2140033C0000000008B45088B50088B45088B400C8E
S2140033D00FAFC289C28B45088B0089542404890428
S2140033E024E81FF3FFFF8B45F4890424E8B6CCFFDE
S2140033F0FF90C9C35589E55383EC248B45088B4061
S2140034001C8945F0E89BCCFFFF8945ECE845CCFFDE
S214003410FFA108E32C008B401083C00139450C7EC9
S2140034200EA108E32C008B401083C00189450C8355
S2140034307D0CFF7D07C7450CFFFFFFFF8B45088B04
S214003440550C89501C8B45F03B450C0F8EDF000059
S21400345000837D0C00785F8B45F08945F4EB3B8B51
S2140034601508E32C008B45F48D48FFA108E32C00DB
S21400347083C1048B548A048B4DF483C10489548819
S21400348004A108E32C008B55F483C2048B449004FB
S2140034908B55F489501C836DF4018B45F43B450C29
S2140034A07FBDA108E32C008B550C8D4A048B550874
S2140034B089548804EB6BA108E32C008B4010394537
S2140034C0F07D508B45F08945F4EB3B8B1508E32CDB
S2140034D0008B45F48D4801A108E32C0083C1048BC2
S2140034E0548A048B4DF483C10489548804A108E3EC
S2140034F02C008B55F483C2048B4490048B55F489BE
S214003500501C8345F401A108E32C008B401039457C
S214003510F47CB8A108E32C008B501083EA01895094
S21400352010E866F8FFFFE84BFDFFFFE9F10000003A
S2140035308B45F03B450C0F8DE5000000837DF000C9
S214003540785F8B45F08945F4EB3B8B1508E32C0040
S2140035508B45F48D4801A108E32C0083C1048B54ED
S2140035608A048B4DF483C10489548804A108E32C93
S214003570008B55F483C2048B4490048B55F4895019
S2140035801C8345F4018B45F43B450C7CBDA108E348
S2140035902C008B550C8D4A048B550889548804EBF7
S2140035A076A108E32C008B40108945F4EB418B157F
S2140035B008E32C00A108E32C008B4DF48D59018BF9
S2140035C04DF483C1048B548A048D4B0489548804BB
S2140035D0A108E32C008B55F483C20183C2048B44FC
S2140035E090048B55F483C20189501C836DF4018BC3
S2140035F045F43B450C7DB7A108E32C008B550C8D9C
S2140036004A048B550889548804A108E32C008B5083
S2140036101083C201895010E870F7FFFFE855FCFFE1
S214003620FF8B45EC890424E87BCAFFFF908B5DFC8A
S214003630C9C35589E583EC38E867CAFFFF8945F4B6
S214003640E811CAFFFF837D0C137F07C7450C1400E3
S2140036500000837D10317F07C74510320000008BC5
S21400366045088B50108B450C01C2A108E32C008B3B
S214003670400839C27E15A108E32C008B50088B4504
S214003680088B481089D029C889450C8B45088B5073
S214003690148B451001C2A108E32C008B400C39C2E4
S2140036A07E15A108E32C008B500C8B45088B481424
S2140036B089D029C88945108B45088B50088B45084A
S2140036C08B400C0FAFC289C28B45088B00895424EF
S2140036D004890424E82CF0FFFF8B45088B550C89E1
S2140036E050088B45088B551089500C8B4508C740F1
S2140036F044000000008B45088B50448B45088950D9
S214003700408B45088B50408B45088950288B4508D0
S2140037108B50288B45088950248B450C0FAF4510DD
S214003720890424E8AFEEFFFF89C28B450889108B19
S21400373045088B00C744241408000000C744241022
S21400374007000000C744240C000000008B551089B9
S2140037505424088B550C89542404890424E86FECFF
S214003760FFFF8B4508890424E82FF5FFFF8B4508EB
S2140037708B809000000083F8050F87860000008B82
S21400378004859CD22800FFE0C74424046AD228009F
S2140037908B4508890424E8FEE4FFFFEB68C7442451
S2140037A00472D228008B4508890424E8E9E4FFFF68
S2140037B0EB53C74424047AD228008B450889042496
S2140037C0E8D4E4FFFFEB3EC744240482D228008BF3
S2140037D04508890424E8BFE4FFFFEB29C744240416
S2140037E08AD228008B4508890424E8AAE4FFFFEB68
S2140037F014C744240492D228008B4508890424E880
S21400380095E4FFFF908B4508890424E89CF3FFFFAE
S2140038108B45F4890424E88CC8FFFF90C9C35589FA
S214003820E583EC38C70424409C0000E8A7EDFFFFC2
S2140038308945F4C744241408000000C74424100730
S214003840000000C744240C00000000C7442408C839
S214003850000000C7442404C80000008B45F4890417
S21400386024E86BEBFFFFC744240834120000C7446B
S2140038702404C8000000C70424C8000000E833F190
S214003880FFFF8945F0C744240864000000C74424AD
S21400389004C80000008B45F0890424E889F2FFFF85
S2140038A0C7442404E80300008B45F0890424E8415B
S2140038B0FBFFFFC70424F8240100E818EDFFFF898A
S2140038C045F4C744241408000000C7442410070029
S2140038D00000C744240C00000000C7442408FA0077
S2140038E00000C74424042C0100008B45F4890424FE
S2140038F0E8DCEAFFFFC744240834120000C744246B
S21400390004FA000000C704242C010000E8A4F0FF1D
S214003910FF8945ECC744240896000000C7442404E9
S214003920FA0000008B45EC890424E8FAF1FFFFC793
S214003930442404E80300008B45EC890424E8B2FA2A
S214003940FFFF8B45ECC9C3905589E583EC108B458A
S214003950088945F88B450C8945F4C745FC000000EE
S21400396000EB198B55FC8B45F401D08B4DFC8B5529
S214003970F801CA0FB60088028345FC018B45FC3966
S214003980451077DF8B4508C9C35589E583EC108B56
S21400399045088945F8C745FC00000000EB118B552B
S2140039A0FC8B45F801D08B550C88108345FC018BA9
S2140039B045FC39451077E78B4508C9C35589E5832B
S2140039C0EC108B45088945F88B450C8945F4C745AE
S2140039D0FC00000000EB308B55FC8B45F801D00F47
S2140039E0B6000FB6C08B4DFC8B55F401CA0FB6124D
S2140039F00FB6D229D08945F0837DF00074058B453B
S214003A00F0EB118345FC018B45FC39451077C8B8AF
S214003A1000000000C9C35589E583EC108B45088972
S214003A2045F88B450C8945F48B45F82B45F485C045
S214003A307F2EC745FC00000000EB1B8B55F48D4223
S214003A40018945F48B45F88D4801894DF80FB6126B
S214003A5088108345FC018B45FC39451077DDEB3E2D
S214003A608B451083E8010145F88B451083E801017A
S214003A7045F4C745FC00000000EB1B8B55F48D4257
S214003A80FF8945F48B45F88D48FF894DF80FB6122F
S214003A9088108345FC018B45FC39451077DD8B4546
S214003AA008C9C35589E583EC10C745FC0000000033
S214003AB0EB048345FC018B55FC8B450C01C28B4DFA
S214003AC0FC8B450801C80FB61288100FB60084C0DC
S214003AD075E08B4508C9C35589E583EC10C745FCDE
S214003AE000000000EB048345FC018B55FC8B450869
S214003AF001D00FB60084C075ED8B45FCC9C355894F
S214003B00E583EC10C745FC000000008B55FC8B4598
S214003B100801D00FB6000FB6C08B4DFC8B550C01BC
S214003B20CA0FB6120FB6D229D08945F8837DF800A1
S214003B3074058B45F8EB1C8B55FC8B450C01D00FA0
S214003B40B60084C07507B800000000EB068345FC8D
S214003B5001EBB8C9C35589E583EC10C745FC0000E6
S214003B600000EB048345FC018B55FC8B450801D017
S214003B700FB60084C075EDC745F800000000EB04E2
S214003B808345F8018B55F88B450C01C28B4DFC8B99
S214003B9045F801C889C18B450801C80FB6128810C0
S214003BA00FB60084C075D98B4508C9C35589E58B07
S214003BB045080FB6000FBEC039450C75058B450885
S214003BC0EB178B45080FB60084C07507B8000000D9
S214003BD000EB0683450801EBD65DC35589E583EC0B
S214003BE0188B450C894424048B4508890424E8B9BD
S214003BF0FFFFFF894508837D08007507B8000000B1
S214003C0000EB2B8B45088D50018B450C8944240412
S214003C10891424E894FFFFFF8945FC837DFC00752A
S214003C20058B4508EB088B45FC894508EBD5C9C3D1
S214003C305589E583EC10EB04834508018B45080F96
S214003C40B6003C2074F28B45080FB6003C0974E8B9
S214003C50C745F8000000008B45080FB6003C2D75E0
S214003C6007C745F801000000C745FC00000000EB50
S214003C70258B55FC89D0C1E00201D001C089C18BDB
S214003C8045088D50018955080FB6000FBEC001C803
S214003C9083E8308945FC8B45080FB6003C2F7E0A2A
S214003CA08B45080FB6003C397EC7837DF800740745
S214003CB08B45FCF7D8EB038B45FCC9C35589E583D8
S214003CC0EC18C744240434000000C7042443000052
S214003CD000E882C3FFFFC74424049C000000C7041A
S214003CE02440000000E86EC3FFFFC74424042E00F3
S214003CF00000C7042440000000E85AC3FFFFC705C1
S214003D0020E32C000000000090C9C35589E583EC31
S214003D1018C7442404FF000000C704242100000044
S214003D20E833C3FFFFC7442404FF000000C7042491
S214003D30A1000000E81FC3FFFFC7442404110000D1
S214003D4000C7042420000000E80BC3FFFFC744247C
S214003D500420000000C7042421000000E8F7C2FF8A
S214003D60FFC744240404000000C704242100000008
S214003D70E8E3C2FFFFC744240401000000C7042490
S214003D8021000000E8CFC2FFFFC744240411000052
S214003D9000C70424A0000000E8BBC2FFFFC74424FD
S214003DA00428000000C70424A1000000E8A7C2FF02
S214003DB0FFC744240402000000C70424A10000003A
S214003DC0E893C2FFFFC744240401000000C7042490
S214003DD0A1000000E87FC2FFFFC7442404FB0000E8
S214003DE000C7042421000000E86BC2FFFFC744247C
S214003DF004FF000000C70424A1000000E857C2FF2B
S214003E00FF90C9C35589E583EC28C74424046000A5
S214003E100000C7042420000000E83AC2FFFFA120EB
S214003E20E32C0083C001A320E32C00E88D020000F1
S214003E30C745F400000000E9830100008B55F489B3
S214003E40D0C1E00201D0C1E0020534E32C008B00B3
S214003E5085C00F8463010000E84C02000089C28B15
S214003E604DF489C8C1E00201C8C1E002052CE32C6C
S214003E70008B0089D129C18B55F489D0C1E002019D
S214003E80D0C1E0020530E32C008B0039C10F822838
S214003E900100008B55F489D0C1E00201D0C1E002D8
S214003EA00534E32C008B0083F801754E8B45F48DAA
S214003EB088000100008B55F489D0C1E00201D0C112
S214003EC0E0020524E32C008B00894C24048904249A
S214003ED0E83604000085C00F85DE0000008B55F430
S214003EE089D0C1E00201D0C1E0020534E32C00C74E
S214003EF00000000000E9C10000008B55F489D0C125
S214003F00E00201D0C1E0020534E32C008B0083F808
S214003F10030F85A40000008B55F489D0C1E0020190
S214003F20D0C1E0020528E32C008B008945F0E87636
S214003F3001000089C28B4DF489C8C1E00201C8C1E6
S214003F40E002052CE32C008B0089D129C18B55F4A7
S214003F5089D0C1E00201D0C1E0020530E32C008B1D
S214003F600039C17256A1640A2D008B400C85C075BD
S214003F704A8B45F08B400483F802743F8B55F489D6
S214003F80D0C1E00201D0C1E0020534E32C00C70036
S214003F9000000000A1640A2D008B008945ECC74490
S214003FA02404FFFFFFFF8B45F0890424E84B09003B
S214003FB000A1640A2D008B55EC89108345F401811D
S214003FC07DF4F30100000F8E70FEFFFFA1E0D52800
S214003FD00085C0740DA1E0D5280083E801A3E0D5D4
S214003FE02800A1E0D5280085C07505E8040A000071
S214003FF090C9C35589E583EC28C745F40000000046
S214004000E9840000008B55F489D0C1E00201D0C1DC
S214004010E0020534E32C008B0085C075688B55F4F0
S21400402089D0C1E00201D0C1E0028D9024E32C00CB
S2140040308B45088902E86F00000089C28B4DF48921
S214004040C8C1E00201C8C1E002052CE32C008910BB
S2140040508B55F489D0C1E00201D0C1E0028D9030CA
S214004060E32C008B450C89028B55F489D0C1E00205
S21400407001D0C1E0020534E32C00C70001000000B7
S2140040808B45F4EB228345F401817DF4F3010000B7
S2140040900F8E6FFFFFFFC70424C0D22800E886DE1D
S2140040A0FFFFB800000000C9C35589E58B1520E363
S2140040B02C0089D0C1E00201D001C05DC35589E55E
S2140040C083EC28A108E32C008B401085C00F88EDF8
S2140040D0010000A108E32C008B1508E32C008B528E
S2140040E01083C2048B4490048945F0E854BFFFFF58
S2140040F08945ECC744240400F82600C70424FF07BB
S2140041000000E86BBFFFFF0FB6053C0A2D00A23D7E
S2140041100A2D008B45ECA23C0A2D000FB6053C0A82
S2140041202D003C2A751A0FB6053D0A2D003CE07599
S2140041300FC705380A2D0000000000E981010000C5
S2140041408B45EC258000000085C07409C605340A3E
S2140041502D0000EB218B45F08B80900000008B55E6
S214004160EC0FB6D2C1E00701D005E0D228000FB6AA
S21400417000A2340A2D00A1380A2D0085C0751F8BB9
S21400418045EC258000000085C00F8432010000C782
S21400419005380A2D0001000000E923010000A138BF
S2140041A00A2D0083F8010F85150100008B45EC25CC
S2140041B08000000085C00F85050100008365EC7F48
S2140041C0C705380A2D0000000000E8DAFEFFFF8B66
S2140041D015440A2D0029D083F859770FE8C8FEFF4A
S2140041E0FFA3440A2D00E9D6000000E8B9FEFFFF51
S2140041F0A3440A2D008B45F08B8090000000C1E0A0
S2140042000789C28B45EC01D005E0D228000FB60026
S2140042100FB6C08945E88165E8FF000000C745F491
S21400422000000000817DE88E0000007509C745F497
S21400423001000000EB46817DE88F0000007509C78D
S21400424045F402000000EB34817DE8940000007520
S21400425009C745F403000000EB22817DE8900000CA
S214004260007509C745F404000000EB10817DE89254
S2140042700000007507C745F405000000837DF400C4
S21400428074298B45F08B80900000003945F4750F3B
S2140042908B45F0C7809000000000000000EB0C8B00
S2140042A045F08B55F48990900000008B45E88944D2
S2140042B02404C7042480C12C00E84D000000EB0154
S2140042C090C9C3905589E58B4508C7401401000086
S2140042D0008B45088B550C89500C8B45088B551068
S2140042E089108B45088B550C8950108B4508C740A4
S2140042F004000000008B4508C74008000000008B43
S21400430045088B5514895018905DC35589E583EC94
S214004310288B45088B401485C0750AB8FFFFFFFF41
S214004320E9C50000008B45088B401085C0751B8BC7
S21400433045088B401483C80289C28B4508895014EF
S214004340B8FFFFFFFFE9A00000008B45088B108B2D
S21400435045088B4004C1E00201C28B450C89028BE4
S21400436045088B40048D50018B45088950048B45C9
S214004370088B50048B45088B400C39C2750A8B4558
S21400438008C74004000000008B45088B40108D5085
S214004390FF8B45088950108B45088B401885C074E4
S2140043A044A1640A2D008B400C85C075388B4508E7
S2140043B08B40188B400483F802742AA1640A2D00EF
S2140043C08B008945F48B45088B4018C7442404FFAE
S2140043D0FFFFFF890424E821050000A1640A2D00E0
S2140043E08B55F48910B800000000C9C35589E583D1
S2140043F0EC108B45088B401485C07507B8FFFFFF8F
S214004400FFEB678B45088B50108B45088B400C39AB
S214004410C27507B8FFFFFFFFEB508B45088B108B6C
S21400442045088B4008C1E00201D08B008945FC8B13
S21400443045088B40088D50018B45088950088B45F0
S214004440088B50088B45088B400C39C2750A8B4583
S21400445008C74008000000008B45088B40108D50B0
S214004460018B45088950108B45FCC9C35589E58BDF
S21400447045088B500C8B45088B481089D029C85DA1
S214004480C39090905589E583EC28E815BCFFFF891A
S21400449045F4E8BFBBFFFF8B15640A2D00A1640A34
S2140044A02D008B400469C09801000083C01001D025
S2140044B08945F08B45F08B50048B45F08B44900873
S2140044C08945EC8B45F4890424E8D9BBFFFF8B456E
S2140044D0ECC9C35589E583EC28E8C6BBFFFF8945D0
S2140044E0F4E870BBFFFF8B15640A2D008B45088B24
S2140044F0400869C09801000083C01001D08945F0CB
S2140045008B45F08B108B45F08B4D08894C90088BB3
S21400451045F08B008D50018B45F089108B4508C700
S214004520400402000000A1640A2D00C7000000003D
S214004530008B45F4890424E86BBBFFFF90C9C35584
S21400454089E583EC288B15640A2D008B45088B4083
S2140045500869C09801000083C01001D08945F0C7E3
S21400456045F400000000EB138B45F08B55F48B44AC
S214004570900839450874108345F4018B45F08B008C
S2140045803945F47CE3EB01908B45F08B008D50FFB2
S2140045908B45F089108B45F08B40043945F47D0F30
S2140045A08B45F08B40048D50FF8B45F08950048B73
S2140045B045F08B50048B45F08B0039C27C0A8B4546
S2140045C0F0C74004000000008B4508C74004010007
S2140045D00000EB1B8B45F48D50018B45F08B4C9007
S2140045E0088B45F08B55F4894C90088345F4018B75
S2140045F045F08B003945F47CDB8B45F08B0085C09D
S214004600752EE830000000A1640A2D008B0085C0DE
S2140046107507B801000000EB1C8B450C890424E8E4
S21400462083BAFFFFE89BBAFFFFE828BAFFFFEBD28A
S214004630B800000000C9C35589E583EC28E862BAD3
S214004640FFFF8945F0E80CBAFFFFC745F4000000FD
S21400465000EB2B8B15640A2D008B45F469C098017E
S214004660000001D083C0108B0085C07E0DA1640AB7
S2140046702D00C70000000000EB0A8345F401837D8F
S214004680F4097ECF837DF40A750BA1640A2D00C75A
S2140046900001000000A1640A2D008B55F489500427
S2140046A0A1640A2D00C64008008B45F0890424E862
S2140046B0F3B9FFFF90C9C35589E583EC28C745F0D9
S2140046C000002700C7042420D50100E807DFFFFF0D
S2140046D0A3640A2D00C745F400000000E985000029
S2140046E0008B15640A2D008B45F46BC07401D00551
S2140046F004100000C700000000008B45F483C004CF
S2140047008B0D640A2D008D14C5000000008B45F447
S2140047106BC07401C8050010000089108B15640A70
S2140047202D008B45F46BC074050010000001D0838B
S214004730C00C89C28B45F483C0048D0CC5000000F4
S214004740008B45F001C8C744240C8900000089543A
S2140047502408C744240467000000890424E88FDA8C
S214004760FFFF8345F401817DF4E70300000F8E6EA2
S214004770FFFFFFC745F400000000EB388B15640A06
S2140047802D008B45F469C09801000001D083C0104D
S214004790C700000000008B15640A2D008B45F469E5
S2140047A0C09801000001D083C014C70000000000BC
S2140047B08345F401837DF4097EC2E8390000008950
S2140047C045EC8B45ECC7400402000000A1640A2DAE
S2140047D000C700000000008B45ECC7400800000042
S2140047E000E851FEFFFF8B45EC8B00890424E89F10
S2140047F0B8FFFF8B45ECC9C35589E583EC28C74550
S214004800F400000000E9D20000008B15640A2D00B9
S2140048108B45F46BC07401D005041000008B008536
S214004820C00F85B10000008B15640A2D008B45F47F
S2140048306BC074050010000001D08945F08B45F070
S214004840C74004010000008B45F0C740300202005C
S214004850008B45F0C74034000000008B45F0C74091
S21400486038000000008B45F0C7403C000000008B7D
S21400487045F0C74040000000008B45F0C7404800A8
S2140048800000008B45F0C7404C000000008B45F050
S214004890C74050000000008B45F0C74054000000A1
S2140048A0008B45F0C74060000000008B45F0C74015
S2140048B064000000008B45F0C74068000000008BD5
S2140048C045F0C7406C000000008B45F0C740700004
S2140048D00000408B45F0EB228345F401817DF4E730
S2140048E00300000F8E21FFFFFFC7042400D6280018
S2140048F0E833D6FFFFB800000000C9C35589E5833A
S214004900EC28E89DB7FFFF8945F4E847B7FFFF832B
S2140049107D0C0079098B45088B400889450C8B4532
S214004920088B400483F802751D8B45088B400839B8
S214004930450C74128B45F4894424048B450889047D
S21400494024E8F9FBFFFF8B45088B400483F80274CC
S214004950148B45088B550C8950088B450889042410
S214004960E86EFBFFFFA1640A2D00C64008018B45D8
S214004970F4890424E82EB7FFFF90C9C35589E58360
S214004980EC28E81DB7FFFF8945F4E8C7B6FFFF8BA4
S21400499045088B400483F802754CE8E5FAFFFF896A
S2140049A045F08B45F4894424048B4508890424E8A3
S2140049B08BFBFFFF8B45083B45F0752AE876FCFF2E
S2140049C0FFE8BEFAFFFF8945F08B45F03B450874CB
S2140049D0158B45F08B0089442404C704240000008E
S2140049E000E8F7B6FFFF8B45F4890424E8B6B6FF67
S2140049F0FF90C9C35589E583EC38A1640A2D008B66
S214004A00400C85C00F84AC000000C745F4000000D1
S214004A1000E9910000008B15640A2D008B45F469AF
S214004A20C09801000083C01001D08945ECC745F04E
S214004A3000000000EB678B45EC8B55F08B4490082C
S214004A408945E8A1640A2D008B400C3945E8744975
S214004A508B45E88B400483F802753EA1640A2D005E
S214004A608B55F48950048B45EC8B55F0895004A186
S214004A70640A2D00C7400C00000000A1640A2D0047
S214004A80C64008018B45E88B0089442404C70424EB
S214004A9000000000E844B6FFFF8345F001837DF088
S214004AA0637E938345F401837DF4090F8E65FFFFD3
S214004AB0FFE9C4000000A1640A2D008B0085C00F2A
S214004AC085B10000008B15640A2D00A1640A2D0034
S214004AD08B400469C09801000083C01001D089454E
S214004AE0EC8B45EC8B50048B45EC8B449008894549
S214004AF0E88B45EC8B40048D50018B45EC895004C7
S214004B008B45EC8B50048B45EC8B0039C2750A8BB9
S214004B1045ECC7400400000000A1640A2D000FB653
S214004B20400884C07421E80CFBFFFF8B15640A2D37
S214004B3000A1640A2D008B400469C0980100008320
S214004B40C01001D08945EC8B45EC8B50048B45ECAE
S214004B508B4490088945E48B45E43B45E8741A8B02
S214004B6045E48B0089442404C7042400000000E8C0
S214004B7069B5FFFFEB0390EB0190C9C35589E58348
S214004B80EC28E81DB5FFFF8945F0E8C7B4FFFF8BAA
S214004B9015640A2D00A1640A2D008B400469C09894
S214004BA001000083C01001D08945EC8B45EC8B508A
S214004BB0048B45EC8B4490088945E8C745F4000013
S214004BC00000EB1C8B55F489D0C1E00201D0C1E097
S214004BD0020534E32C008B0085C0740F8345F40176
S214004BE0817DF4F30100007EDBEB0190817DF4F41F
S214004BF0010000750CC704241CD62800E827D3FF44
S214004C00FF8B55F489D0C1E00201D0C1E002052433
S214004C10E32C00C70000000000E88BF4FFFF89C209
S214004C208B4DF489C8C1E00201C8C1E002052CE33F
S214004C302C0089108B55F489D0C1E00201D0C1E068
S214004C40028D9030E32C008B450889028B55F48941
S214004C50D0C1E00201D0C1E0028D9028E32C008B89
S214004C6045E889028B55F489D0C1E00201D0C1E045
S214004C70020534E32C00C700030000008B45F089D2
S214004C800424E820B4FFFF8B45E8890424E8EAFC06
S214004C90FFFF90C9C39090905589E583EC18837DFB
S214004CA0080175108B450C890424E8BA000000E959
S214004CB0B3000000837D080275248B451083E07FD7
S214004CC089C28B450C89542408C744240440D6283E
S214004CD000890424E8C0CFFFFFE984000000837D3C
S214004CE0080375178B45100FBED08B450C895424CE
S214004CF004890424E801D3FFFFEB67837D0804756D
S214004D001F8B45100FB6D08B450C89542408C7441A
S214004D10240443D62800890424E87BCFFFFFEB4217
S214004D20837D0805751C8B450C8B5510895424080B
S214004D30C744240448D62800890424E859CFFFFF36
S214004D40EB20837D0806751A8B450C8B551089540D
S214004D502408C74424044BD62800890424E837CF07
S214004D60FFFFB800000000C9C35589E583EC10A119
S214004D70ACC32C008945FCA108E32C008B401089AD
S214004D8045F8837DF8007907B800000000EB28A1FD
S214004D9008E32C008B55F883C2048B4490043945F5
S214004DA0087407B800000000EB0DC705ACC32C0064
S214004DB0000000008B45FCC9C39090905589E583A0
S214004DC0EC28E8DDB2FFFF8945F4E887B2FFFFC7AD
S214004DD0442408FFFF00008B4514894424048B45B7
S214004DE010890424E8CCDBFFFF8B550C8902A10850
S214004DF0E32C008B400C2B451489C2C1EA1F01D05E
S214004E00D1F889C1A108E32C008B40082B451089F6
S214004E10C2C1EA1F01D0D1F889C28B450C8B00892C
S214004E204C240889542404890424E8FADCFFFF8B08
S214004E30450C8B00C7442404E8030000890424E8DA
S214004E40B0E5FFFFE8AFF9FFFF8B550889028B45F9
S214004E5018890424E87ED7FFFF8B551801D08D50A3
S214004E60F48B45088B008950448B45088B008B5586
S214004E701C89502C8B45088B00C740540800000046
S214004E808B45088B00C74058100000008B45088BE8
S214004E9000C7405C080000008B45088B00C74060D8
S214004EA0080000008B45088B00C74064080000001F
S214004EB08B45088B00C74068080000008B450C8BAC
S214004EC0108B45088B008B404483C00489108B45AB
S214004ED0088B108B45088B008B404483C0088910D4
S214004EE08B45088B008B552089542404890424E8BC
S214004EF008FAFFFF8B45F4890424E8A8B1FFFF9069
S214004F00C9C390905589E583EC28B884510000C742
S214004F104424180300000089442414C744241000C5
S214004F20000100C744240C90010000C7442408F484
S214004F30010000C7442404680A2D00C704246C0A34
S214004F402D00E875FEFFFF90C9C35589E583EC3850
S214004F50C745E800002700C744240808000000C72B
S214004F60442404000000008D45E0890424E817EA84
S214004F70FFFFC745EC000000008B45EC8945F0C7F5
S214004F8045F404000000EB448B45F48D14C5000086
S214004F9000008B45E801D0C74424080800000089BB
S214004FA04424048D45E0890424E80EEAFFFF85C00A
S214004FB07516837DF00075088B45F48945F0EB087F
S214004FC08B45F48945ECEB0D8345F401817DF4FEB9
S214004FD01F00007EB3817DF4FF1F0000750CC70420
S214004FE02450D62800E83ECFFFFFA1EC21380089E8
S214004FF0C28B45EC8D0CC5000000008B45E801C84F
S214005000C744240C9A40000089542408C74424044A
S214005010FFFF0F00890424E8D5D1FFFFA1EC21385B
S2140050200089C28B45F08D0CC5000000008B45E85A
S21400503001C8C744240C9240000089542408C74481
S2140050402404FFFF0F00890424E8A3D1FFFFE8A58E
S214005050F7FFFFA3700A2D00C7042400000100E834
S21400506073D5FFFF8D90F4FF0000A1700A2D008914
S2140050705044A1700A2D00C7402C00000000A1700B
S2140050800A2D008B55F0C1E203895054A1700A2DF9
S214005090008B55ECC1E203895058A1700A2D00C759
S2140050A0405C08000000A1700A2D008B55F0C1E29C
S2140050B003895060A1700A2D008B55F0C1E2038968
S2140050C05064A1700A2D008B55F0C1E20389506828
S2140050D08B15680A2D00A1700A2D00895038A17022
S2140050E00A2D00C744240405000000890424E809AA
S2140050F0F8FFFF90C9C35589E583EC18C74424041C
S21400510068D628008B4508890424E88ACBFFFFC7A9
S2140051104424046CD628008B4508890424E877CB01
S214005120FFFFC744240490D628008B450889042432
S214005130E864CBFFFFC7442404B4D628008B450898
S214005140890424E851CBFFFFC7442404D6D62800A0
S2140051508B4508890424E83ECBFFFFC7442404F4AB
S214005160D628008B4508890424E82BCBFFFFC744CC
S214005170240468D628008B4508890424E818CBFF49
S214005180FF90C9C35589E581ECA8000000C74424F8
S2140051900414D728008B4508890424E8F9CAFFFFC1
S2140051A0C74424042CD728008B4508890424E8E645
S2140051B0CAFFFFC745F400000000EB798B4508895D
S2140051C00424E84BBAFFFF8945F0837DF00A752377
S2140051D0C744240468D628008B4508890424E8B60A
S2140051E0CAFFFF8D9570FFFFFF8B45F401D0C60008
S2140051F000EB4E837DF0007E34837DF07F7F2E8B28
S21400520045F089442408C74424042FD728008B453A
S21400521008890424E880CAFFFF8B45F089C28D8D7B
S21400522070FFFFFF8B45F401C88810EB04836DF414
S214005230018345F4018B45F483F87F0F867BFFFFDF
S214005240FF817DF480000000750E8B45F483E80135
S214005250C6840570FFFFFF00C744240432D7280029
S2140052608D8570FFFFFF890424E890E8FFFF85C066
S21400527075108B4508890424E879FEFFFFE91EFFB8
S214005280FFFFC744240437D728008D8570FFFFFF33
S214005290890424E866E8FFFF85C0752B8B45088BDC
S2140052A0406C8B000FBEC0894424048B45088904DB
S2140052B024E844CDFFFF8B45088B4060C700000004
S2140052C00000E9D9FEFFFFC74424043BD728008D21
S2140052D08570FFFFFF890424E821E8FFFF85C0757D
S2140052E00AE8AF0E0000E9B5FEFFFFC744240441FC
S2140052F0D728008D8570FFFFFF890424E8FDE7FFAF
S214005300FF85C0750AE85D5A0000E991FEFFFFC7F9
S2140053104424044AD728008D8570FFFFFF890424A3
S214005320E8D9E7FFFF85C07579E81CFCFFFFEB6056
S2140053308B4508C74424080000000089442404C79D
S214005340042401000000E8E1ADFFFF8945F0817DFF
S214005350F0B9000000752DE8FAACFFFFA1700A2D29
S21400536000C744240400000000890424E8CEF1FFAE
S214005370FFE8DEACFFFFA1700A2D00C74004000066
S2140053800000EB6BC7042464000000E8ECF7FFFFA6
S214005390A1700A2D008B400483F8027493E9FEFD89
S2140053A0FFFFC74424044ED728008D8570FFFFFFFB
S2140053B0890424E846E7FFFF85C075208B4508C7AB
S2140053C04424083412000089442404C70424050039
S2140053D00000E855ADFFFFE9C4FDFFFFC744240405
S2140053E054D728008B4508890424E8AAC8FFFFE99B
S2140053F0ACFDFFFF5589E5837D08007521B80000E8
S2140054000000EB298B15740A2D008B450801D00F80
S214005410B6003C0A75088B450883C001EB0F836D08
S2140054200801837D080075DCB8000000005DC355E8
S21400543089E583EC28A1800A2D008B0D880A2D00B3
S21400544029C889C289D001C001D0C1E0028945F0CF
S214005450A1840A2D008B158C0A2D0029D0C1E004EA
S21400546083C00F8945ECC745F400000000EB2C8B89
S21400547055F08B45F48D0C02A1680A2D008B55085B
S2140054808954240C8B55EC89542408894C240489AF
S2140054900424E8A8C0FFFF8345F401837DF40B7E57
S2140054A0CE9090C9C35589E583EC28C745F4000023
S2140054B00000C745F000000000EB3E8B15740A2D77
S2140054C0008B45F401D0C74424040A000000890478
S2140054D024E8D6E6FFFF8945EC837DEC0075058B56
S2140054E045F4EB208345F0018B15740A2D008B459F
S2140054F0EC29D083C0018945F48B45F03B45087CF8
S214005500BA8B45F4C9C35589E583EC28A1840A2DD6
S21400551000890424E88CFFFFFF8945F4C745EC00AA
S214005520000000EB4A8B15740A2D008B45F401C26F
S214005530A1840A2D0089542408894424048D45EC4E
S214005540890424E81D0100008945F0837DF0637F0F
S214005550088B45F00145F4EB16837DF06475058BEA
S21400556045F4EB1A837DF06575058B45F4EB0F8BE0
S21400557055ECA1800A2D0039C27CAA8B45F4C9C31C
S2140055805589E583EC38C745F000000000A1740A91
S2140055902D008945F4C705800A2D0000000000C7CD
S2140055A005840A2D00000000008B45083B45F00FDF
S2140055B08EA4000000C74424040A0000008B45F4B3
S2140055C0890424E8E4E5FFFF8945EC837DEC00745C
S2140055D02B8B45EC83C0018B15740A2D0029D0391E
S2140055E045087C1BA1840A2D0083C001A3840A2DD4
S2140055F0008B45EC83C0018945F4EBAD90EB019040
S214005600C745E4000000008B45E4A3800A2D00A1F6
S214005610840A2D008B55F489542408894424048D6B
S21400562045E4890424E83B0000008945E8837DE8DA
S214005630637F088B45E80145F4EB0C837DE86474D2
S2140056401B837DE86574188B15740A2D008B45F452
S21400565029D03945087C0BEBAE90EB0790EB049015
S214005660EB0190C9C35589E55383EC348B45088B11
S214005670008B0D880A2D0029C889C289D001C00177
S214005680D0C1E0028945F08B158C0A2D008B450CA5
S21400569029D0C1E0048945E48D45DC894424048B87
S2140056A04510890424E860B6FFFF8945E0837DE065
S2140056B000750AB864000000E99A0100008B45DC1A
S2140056C083F8010F855A010000C745E80000000076
S2140056D0E993000000C745EC00000000EB7CA168E1
S2140056E00A2D008B40708B0085C07536A1680A2D88
S2140056F0008B406C8B108B4DE48B45E88D1C018B2A
S2140057004DF08B45EC01C1A1680A2D008954240C8C
S214005710895C2408894C2404890424E81FBEFFFF02
S214005720EB34A1680A2D008B40688B108B4DE48B00
S21400573045E88D1C018B4DF08B45EC01C1A1680A34
S2140057402D008954240C895C2408894C240489047F
S21400575024E8E9BDFFFF8345EC01837DEC050F8E51
S2140057607AFFFFFF8345E801837DE80F0F8E63FF16
S214005770FFFF837DE0097532C745F4000000008313
S21400578045F4018B45088B008D50018B4508891028
S2140057908345F00C8B45088B0083E00385C075DFDE
S2140057A0B801000000E9AD000000837DE00A753A0C
S2140057B08B45E48D5004A1680A2D00C744240C6074
S2140057C0D72800895424088B55F08954240489046A
S2140057D024E8C5B7FFFF8B45088B008D50018B452D
S2140057E0088910B865000000EB6D8B45E48D480411
S2140057F0A1680A2D008B55108954240C894C240866
S2140058008B55F089542404890424E88CB7FFFF8B59
S21400581045088B008D50018B45088910B8010000A3
S21400582000EB34A1680A2D008B55108954240C8B8C
S21400583055E4895424088B55F0895424048904249B
S214005840E856B7FFFF8B45088B008D50028B450846
S2140058508910B8020000008B5DFCC9C35589E5833A
S214005860EC28C745F0000000008B450C894424084E
S2140058708B4508894424048D45F0890424E8E3FD1B
S214005880FFFF8945F4837DF4637F088B45F401456B
S2140058900CEBD690C9C35589E583EC28A1680A2D80
S2140058A000C744240407000000890424E849C7FF11
S2140058B0FFA18C0A2D00890424E8E7FBFFFF894539
S2140058C0EC837DEC00785D8B15740A2D008B45EC1F
